:100000000C9434000C9451000C9451000C94510049
:100010000C9451000C9451000C9451000C9451001C
:100020000C9451000C9451000C9451000C9451000C
:100030000C9451000C9451000C9451000C945100FC
:100040000C9451000C9451000C9451000C945100EC
:100050000C9451000C9451000C9451000C945100DC
:100060000C9453000C94510011241FBECFEFD8E024
:10007000DEBFCDBF11E0A4E7B1E0EAE6F7E002C0E1
:1000800005900D92AE37B107D9F711E0AEE7B1E0B8
:1000900001C01D92AF37B107E1F70E945E030C94D7
:1000A000B3030C9400000C943038CF93DF93EC0131
:1000B000EA81FB8160E080E00995EA81FB8160E0F4
:1000C00081E009958FEC97E00197F1F700C00000FF
:1000D000DF91CF91089580E090E00895CF93DF9372
:1000E000EC01EA81FB8160E080E00995EA81FB8117
:1000F00060E081E009958FEC97E00197F1F700C08F
:100100000000EA81FB8161E081E009958FEC97E0D6
:100110000197F1F700C00000EA81FB8161E080E017
:1001200009958FEC97E00197F1F700C00000DF918F
:10013000CF910895CF93DF93EC01EA81FB8161E0D9
:1001400081E009958FEC97E00197F1F700C000007E
:10015000EA81FB8160E080E009958FEC97E00197F0
:10016000F1F700C00000EA81FB8160E081E00995C1
:100170008FEC97E00197F1F700C00000DF91CF917D
:1001800008951F93CF93DF93EC01162FEA81FB8133
:10019000662311F060E001C061E081E009958FEC19
:1001A00097E00197F1F700C00000EA81FB8160E071
:1001B00080E009958FEC97E00197F1F700C000000F
:1001C000EA81FB8161E080E009958FEC97E001977F
:1001D000F1F700C00000112329F0EA81FB8160E003
:1001E00081E009958FEC97E00197F1F700C00000DE
:1001F000DF91CF911F9108951F93CF93DF93EC016F
:10020000EA81FB8160E081E009958FEC97E001973E
:10021000F1F700C00000EA81FB8160E080E0099511
:100220008FEC97E00197F1F700C00000E881F981B9
:100230000995182F8FEC97E00197F1F700C00000A7
:10024000EA81FB8161E080E009958FEC97E00197FE
:10025000F1F700C00000812FDF91CF911F91089529
:10026000EF92FF920F931F93CF93DF931F92CDB71F
:10027000DEB77C0108E010E0110FC70169830E941E
:10028000FC00182B015069810111F6CF81E061114A
:1002900080E0682FC7010E94C1008FEC97E00197B2
:1002A000F1F700C00000812F0F90DF91CF911F91D7
:1002B0000F91FF90EF9008950F931F93CF93DF93CB
:1002C000EC01062F18E0602F661F6627661FCE011F
:1002D0000E94C100000F1150B1F7CE010E94FC0036
:1002E00091E08927DF91CF911F910F9108956F922F
:1002F0007F929F92AF92BF92CF92DF92EF92FF9246
:100300000F931F93CF93DF931F92CDB7DEB73C01BE
:100310006A01890169830E946E00698170E0660F3D
:10032000771F6160C3010E945C018130A1F0C301AD
:100330000E949A000EEF10E01BC061E0EA14FB047B
:1003400008F060E0C3010E943001F601EE0DFF1DD0
:100350008083939405C0912C580181E0A81AB108BC
:10036000E92CF12CE016F10640F3C3010E949A003B
:10037000C8010F90DF91CF911F910F91FF90EF90E7
:10038000DF90CF90BF90AF909F907F906F90089537
:1003900080E0089580E0089580E0089580E0089569
:1003A000FC012481211102C08581089582E0089515
:1003B0000895DC0115961C9215971296ED91FC910B
:1003C000139761E082E0099421E0DC0115962C93FB
:1003D00015971296ED91FC91139760E082E00994D5
:1003E000FC012481222331F0258121110C94D901B3
:1003F0000C94E4010895633088F421E0613009F041
:1004000020E0FC01258331E0623009F030E0FC019E
:10041000348321110C94E4010C94D9010895CF93F5
:10042000DF93EC01798368835B834A830E945500E4
:1004300060E0CE01DF91CF910C94FB0188B1817017
:10044000089588B186958170089588B182FB8827C8
:1004500080F90895CF93DF93803119F0823169F5E7
:1004600006C0FB018081817080937E0126C080914F
:100470007E01811122C0FB016081C62FD0E0637034
:1004800084E491E00E94FB01BE0175956795759526
:1004900067956370772784E591E00E94FB01BE01B8
:1004A00094E0759567959A95E1F76370772784E6F0
:1004B00091E0DF91CF910C94FB01DF91CF910895F2
:1004C0000F931F93CF93DF93EB01813181F020F4E1
:1004D000803109F07DC007C0823109F44FC08531F9
:1004E00009F076C067C080917E01888360C084E493
:1004F00091E00E94C801888384E491E00E94CA01CF
:10050000898384E491E00E94CC018A8384E591E0B0
:100510000E94C8018B8384E591E00E94CA018C830C
:1005200084E591E00E94CC018D8384E691E00E94F5
:10053000C8018E8384E691E00E94CA018F8384E61D
:1005400091E00E94CC01888784E491E00E94CE0172
:10055000182F84E591E00E94CE01082F84E691E0F7
:100560000E94CE0144E0849F90011124902F990FA6
:10057000922B912B99872AE030E02CC084E491E003
:100580000E94D001182F84E591E00E94D001082F2D
:1005900084E691E00E94D00120E1829FC0011124F5
:1005A00044E0049F90011124282B212B288321E073
:1005B00030E010C0AB014F5F5F4F21E030E062E1FF
:1005C00084E491E00E947701888322E030E002C059
:1005D00020E030E0C901DF91CF911F910F91089584
:1005E00098B1982381E009F480E00895813069F0A2
:1005F00060F08230C1F51CC06230A9F58AB1842B4D
:100600008AB98BB1842B8BB90895613049F008F019
:10061000F3CF8AB1409584238AB98BB18423F3CF79
:100620008AB1842B8AB98BB1409548234BB9089580
:10063000613059F018F06230B1F40FC087B14095C5
:10064000842387B988B184230DC087B1842B87B9EF
:1006500088B14095482348B9089587B1842B87B95C
:1006600088B1842B88B90895833030F4E82FF0E006
:10067000E658FE4F408101C040E00C94F602833002
:1006800030F4E82FF0E0E958FE4F408101C040E02F
:100690000C94F602833030F4E82FF0E0EC58FE4F73
:1006A000408101C040E00C94F60288E2EFEFFFE3E6
:1006B0003197F1F700C08150C9F7089580E692E0C4
:1006C00090933101809330018AE292E0909333015C
:1006D000809332014AE453E06EE172E084E491E0F9
:1006E0000E940F024FE353E061E272E084E591E083
:1006F0000E940F0244E353E065E272E084E691E079
:100700000E940F0210927E01789480917E018111E7
:100710001DC00E94550384E491E00E94F00184E52D
:1007200091E00E94F00184E691E00E94F0010E94B5
:10073000550384E491E00E94F00184E591E00E9479
:10074000F00184E691E00E94F001DFCF84E491E0C3
:100750000E94D80184E591E00E94D80184E691E0EE
:0A0760000E94D801D2CFF894FFCF19
:0A076A001001012002024004040007
:00000001FF
